{
    "contractName": "NotarizingDocument",
    "abi": [
        {
            "inputs": [
                {
                    "internalType": "string",
                    "name": "document",
                    "type": "string"
                }
            ],
            "name": "notarize",
            "outputs": [],
            "stateMutability": "payable",
            "type": "function"
        },
        {
            "inputs": [
                {
                    "internalType": "string",
                    "name": "document",
                    "type": "string"
                }
            ],
            "name": "checkDocument",
            "outputs": [
                {
                    "internalType": "bool",
                    "name": "",
                    "type": "bool"
                }
            ],
            "stateMutability": "view",
            "type": "function"
        }
    ],
    "bytecode": "0x608060405234801561001057600080fd5b5061042e806100206000396000f3fe6080604052600436106100295760003560e01c806353fb92331461002e5780637183616c1461006b575b600080fd5b34801561003a57600080fd5b50610055600480360381019061005091906101f9565b610087565b6040516100629190610291565b60405180910390f35b610085600480360381019061008091906101f9565b6100b8565b005b6000806000610095846100cc565b815260200190815260200160002060009054906101000a900460ff169050919050565b6100c96100c4826100cc565b610125565b50565b60006002826040516100de919061027a565b602060405180830381855afa1580156100fb573d6000803e3d6000fd5b5050506040513d601f19601f8201168201806040525081019061011e91906101d0565b9050919050565b600160008083815260200190815260200160002060006101000a81548160ff02191690831515021790555050565b6000610166610161846102d1565b6102ac565b90508281526020810184848401111561017e57600080fd5b61018984828561032e565b509392505050565b6000815190506101a0816103e1565b92915050565b600082601f8301126101b757600080fd5b81356101c7848260208601610153565b91505092915050565b6000602082840312156101e257600080fd5b60006101f084828501610191565b91505092915050565b60006020828403121561020b57600080fd5b600082013567ffffffffffffffff81111561022557600080fd5b610231848285016101a6565b91505092915050565b61024381610318565b82525050565b600061025482610302565b61025e818561030d565b935061026e81856020860161033d565b80840191505092915050565b60006102868284610249565b915081905092915050565b60006020820190506102a6600083018461023a565b92915050565b60006102b66102c7565b90506102c28282610370565b919050565b6000604051905090565b600067ffffffffffffffff8211156102ec576102eb6103a1565b5b6102f5826103d0565b9050602081019050919050565b600081519050919050565b600081905092915050565b60008115159050919050565b6000819050919050565b82818337600083830152505050565b60005b8381101561035b578082015181840152602081019050610340565b8381111561036a576000848401525b50505050565b610379826103d0565b810181811067ffffffffffffffff82111715610398576103976103a1565b5b80604052505050565b7f4e487b7100000000000000000000000000000000000000000000000000000000600052604160045260246000fd5b6000601f19601f8301169050919050565b6103ea81610324565b81146103f557600080fd5b5056fea26469706673582212202bd035ed9f666904dabe1aa955486a92993d77545b01abb63034686dae7bf99364736f6c63430008030033",
    "immutableReferences": {},
    "source": "//SPDX-License-Identifier: gnu 3.0\npragma solidity >=0.8.0;\ncontract NotarizingDocument {\n mapping (bytes32 => bool) private proofs;\n // store a proof of existence in the contract state\n function storeProof(bytes32 proof) private {\n proofs[proof] = true;\n }\n // calculate and store the proof for a document\n function notarize(string memory document) public payable {\n storeProof(proofFor(document));\n }\n // helper function to get a document's sha256\n function proofFor(string memory document) private\n pure returns (bytes32) {\n return sha256(bytes(document));\n }\n // check if a document has been notarized\n function checkDocument(string memory document) public\n view returns (bool) {\n return proofs[proofFor(document)];\n }\n}",
    "sourcePath": "/home/dayaa/dapp/nervosnetwork/DApp/contracts/NotarazingDocument.sol",
    "compiler": {
        "name": "solc",
        "version": "0.8.3+commit.8d00100c.Linux.g++"
    },
    "schemaVersion": "3.3.4",
    "updatedAt": "2021-08-21T09:14:34.156Z",
    "devdoc": {
        "kind": "dev",
        "methods": {},
        "version": 1
    },
    "userdoc": {
        "kind": "user",
        "methods": {},
        "version": 1
    }
}